:100000000C9462000C948A000C948A000C948A0070
:100010000C948A000C948A000C948A000C948A0038
:100020000C948A000C948A000C948A000C948A0028
:100030000C948A000C948A000C948A000C948A0018
:100040000C94A0020C948A000C9410030C94EA0205
:100050000C948A000C948A000C948A000C948A00F8
:100060000C948A000C948A000000000023002600F3
:10007000290000000000240027002A0000000000E2
:10008000250028002B0004040404040404040202D4
:100090000202020203030303030301020408102007
:1000A0004080010204081020010204081020000012
:1000B0000008000201000003040700000000000027
:1000C00000003E0411241FBECFEFD8E0DEBFCDBF3D
:1000D00011E0A0E0B1E0E4E3F9E002C005900D9288
:1000E000AA35B107D9F722E0AAE5B1E001C01D9217
:1000F000A030B207E1F710E0C2E6D0E004C02197DB
:10010000FE010E948D04C136D107C9F70E94420347
:100110000C9498040C940000833081F028F4813012
:1001200099F08230A1F008958730A9F08830B9F0B5
:100130008430D1F4809180008F7D03C08091800055
:100140008F7780938000089584B58F7702C084B53F
:100150008F7D84BD08958091B0008F7703C080911A
:10016000B0008F7D8093B00008951F93CF93DF93ED
:10017000282F30E0F901E255FF4F8491F901E6564E
:10018000FF4FD491F901EA57FF4FC491CC23C1F03E
:10019000162F81110E948C00EC2FF0E0EE0FFF1F54
:1001A000E458FF4FA591B4919FB7F894111104C082
:1001B0008C91D095D82302C0EC91DE2BDC939FBFAD
:1001C000DF91CF911F910895CF93DF9390E0FC01D1
:1001D000E656FF4F2491FC01EA57FF4F8491882394
:1001E00061F190E0880F991FFC01EE58FF4FC59117
:1001F000D491FC01E458FF4FA591B491611109C05D
:100200009FB7F8948881209582238883EC912E23D0
:100210000BC0623061F49FB7F8948881322F30951B
:1002200083238883EC912E2B2C939FBF06C08FB71E
:10023000F894E8812E2B28838FBFDF91CF9108950A
:100240003FB7F89480915F0190916001A0916101A6
:10025000B091620126B5A89B05C02F3F19F0019609
:10026000A11DB11D3FBFBA2FA92F982F8827820F3C
:10027000911DA11DB11DBC01CD0142E0660F771F8C
:10028000881F991F4A95D1F708958F929F92AF9238
:10029000BF92CF92DF92EF92FF920E9420014B011A
:1002A0005C0184E6C82ED12CE12CF12C0E942001A7
:1002B000DC01CB0188199909AA09BB09883E934042
:1002C000A105B10598F321E0C21AD108E108F108AF
:1002D00088EE880E83E0981EA11CB11CC114D104C5
:1002E000E104F10419F7FF90EF90DF90CF90BF90F9
:1002F000AF909F908F900895CF92DF92EF92FF92F0
:100300000F931F93CF93DF936C017A018B01C0E0B1
:10031000D0E0CE15DF0581F0D8016D918D01D601B9
:10032000ED91FC910190F081E02DC6010995892B9A
:1003300011F02196EECF7E01C701DF91CF911F9181
:100340000F91FF90EF90DF90CF900895089580E097
:1003500090E00895FC01538D448D252F30E0842FCB
:1003600090E0821B930B541710F0CF9608950197DD
:100370000895FC01918D828D981761F0828DDF01C7
:10038000A80FB11D5D968C91928D9F5F9F73928F88
:1003900090E008958FEF9FEF0895FC01918D828D7D
:1003A000981731F0828DE80FF11D858D90E008954A
:1003B0008FEF9FEF0895FC01918D228D892F90E0A2
:1003C000805C9F4F821B91098F739927089583E664
:1003D00091E00E94DB0121E0892B09F420E0822FCB
:1003E0000895FC01848DDF01A80FB11DA35ABF4FF2
:1003F0002C91848D90E001968F739927848FA68924
:10040000B7892C93A089B1898C91837080648C9377
:10041000938D848D981306C00288F389E02D808126
:100420008F7D80830895EF92FF920F931F93CF9358
:10043000DF93EC0181E0888F9B8D8C8D981305C034
:10044000E889F989808185FD26C0F62E0B8D10E0A4
:100450000F5F1F4F0F731127E02E8C8DE8120CC019
:100460000FB607FCFACFE889F989808185FFF5CFBF
:10047000CE010E94F101F1CF8B8DFE01E80FF11D3D
:10048000E35AFF4FF0829FB7F8940B8FEA89FB89FC
:10049000808180620AC09FB7F894EE89FF896083EB
:1004A000E889F98980818370806480839FBF81E0BF
:1004B00090E0DF91CF911F910F91FF90EF90089501
:1004C000CF93DF93EC01888D8823C9F0EA89FB89FB
:1004D000808185FD05C0A889B9898C9186FD0FC0F2
:1004E0000FB607FCF5CF808185FFF2CFA889B989C7
:1004F0008C9185FFEDCFCE010E94F101E7CFDF9116
:10050000CF91089580E090E0892B29F00E94E701C7
:1005100081110C9400000895009769F0FC0101908E
:100520000020E9F73197AF01481B590BBC0183E666
:1005300091E00C947C0180E090E008950E94930487
:100540001F920F920FB60F9211242F933F938F9308
:100550009F93AF93BF9380915B0190915C01A091B9
:100560005D01B0915E0130915A0123E0230F2D37D8
:1005700020F40196A11DB11D05C026E8230F0296A7
:10058000A11DB11D20935A0180935B0190935C01E2
:10059000A0935D01B0935E0180915F019091600135
:1005A000A0916101B09162010196A11DB11D8093DE
:1005B0005F0190936001A0936101B0936201BF91CC
:1005C000AF919F918F913F912F910F900FBE0F9000
:1005D0001F9018951F920F920FB60F9211242F9310
:1005E0003F934F935F936F937F938F939F93AF93BB
:1005F000BF93EF93FF9383E691E00E94F101FF9197
:10060000EF91BF91AF919F918F917F916F915F918A
:100610004F913F912F910F900FBE0F901F90189503
:100620001F920F920FB60F9211242F938F939F93C7
:10063000EF93FF93E0917301F09174018081E09159
:100640007901F0917A0182FD12C0908180917C0144
:100650008F5F8F7320917D01821751F0E0917C01B3
:10066000F0E0ED59FE4F958F80937C0101C08081B1
:10067000FF91EF919F918F912F910F900FBE0F904F
:100680001F901895CF93DF93CDB7DEB7A1970FB624
:10069000F894DEBF0FBECDBF789484B5826084BD70
:1006A00084B5816084BD85B5826085BD85B5816076
:1006B00085BD80916E00816080936E0010928100F4
:1006C00080918100826080938100809181008160AF
:1006D0008093810080918000816080938000809170
:1006E000B10084608093B1008091B00081608093FC
:1006F000B00080917A00846080937A0080917A00C3
:10070000826080937A0080917A00816080937A0081
:1007100080917A00806880937A001092C100E09105
:100720007301F091740182E08083E0916F01F09198
:1007300070011082E0917101F09172018FEC808361
:1007400010927B01E0917701F091780186E080833F
:10075000E0917501F0917601808180618083E09164
:100760007501F0917601808188608083E091750148
:10077000F0917601808180688083E0917501F0912D
:10078000760180818F7D808360E082E00E94E400BA
:1007900061E08DE00E94E40061E08CE00E94E400F2
:1007A00090EBC92E90E0D92E2CE9A22E20E0B22E9B
:1007B00038E8832E30E0932E4AE0442E512C612CF1
:1007C000712CF6018491F5011491F4010491002338
:1007D000A1F081110E948C00E02FF0E0EE0FFF1FCE
:1007E000E859FF4FA591B4918C91182391E080E0D6
:1007F00009F490E0092F182F02C000E010E09801E2
:10080000012E000C440B550B19A27E01F1E2EF0EF4
:10081000F11CCA01B901A30192010E946B04605D41
:10082000F70162937F01211531054105510589F7D3
:10083000CF010E948C0201301105A9F460E08DE027
:100840000E94B50061E08CE00E94B50082E191E079
:100850000E948C028BE391E00E948C020E94450171
:100860000E948202AECF61E08DE00E94B50060E0A0
:100870008CE00E94B5008EE391E0EACFE3E6F1E080
:100880001382128288EE93E0A0E0B0E08483958327
:10089000A683B78384E091E09183808385EC90E028
:1008A0009587848784EC90E09787868780EC90E03A
:1008B000918B808B81EC90E0938B828B82EC90E02B
:1008C000958B848B86EC90E0978B868B118E128EA5
:1008D000138E148E0895A1E21A2EAA1BBB1BFD01D4
:1008E0000DC0AA1FBB1FEE1FFF1FA217B307E4070F
:1008F000F50720F0A21BB30BE40BF50B661F771F67
:10090000881F991F1A9469F7609570958095909546
:100910009B01AC01BD01CF010895EE0FFF1F0590B3
:10092000F491E02D099481E090E0F8940C949804FF
:04093000F894FFCF69
:100934000000000013027C01AA016002DB01B9017E
:10094400CD01205374617475733A20504552494E59
:10095400474154414E2C20416972204D6173756B9F
:100964002C20626F636F72212121000D0A00205335
:1009740074617475733A20414D414E2C207469643E
:0A098400616B20626F636F72000068
:00000001FF
